{"abi":[{"type":"constructor","inputs":[],"stateMutability":"nonpayable"},{"type":"function","name":"getLatestBNBPrice","inputs":[{"name":"priceUpdateData","type":"bytes[]","internalType":"bytes[]"}],"outputs":[{"name":"","type":"tuple","internalType":"struct PythStructs.Price","components":[{"name":"price","type":"int64","internalType":"int64"},{"name":"conf","type":"uint64","internalType":"uint64"},{"name":"expo","type":"int32","internalType":"int32"},{"name":"publishTime","type":"uint256","internalType":"uint256"}]}],"stateMutability":"payable"},{"type":"function","name":"getLatestBTCPrice","inputs":[{"name":"priceUpdateData","type":"bytes[]","internalType":"bytes[]"}],"outputs":[{"name":"","type":"tuple","internalType":"struct PythStructs.Price","components":[{"name":"price","type":"int64","internalType":"int64"},{"name":"conf","type":"uint64","internalType":"uint64"},{"name":"expo","type":"int32","internalType":"int32"},{"name":"publishTime","type":"uint256","internalType":"uint256"}]}],"stateMutability":"payable"},{"type":"function","name":"getLatestChainlinkBTCPrice","inputs":[],"outputs":[{"name":"","type":"int256","internalType":"int256"}],"stateMutability":"view"},{"type":"function","name":"getLatestChainlinkETHPrice","inputs":[],"outputs":[{"name":"","type":"int256","internalType":"int256"}],"stateMutability":"view"},{"type":"function","name":"getLatestETHPrice","inputs":[{"name":"priceUpdateData","type":"bytes[]","internalType":"bytes[]"}],"outputs":[{"name":"","type":"tuple","internalType":"struct PythStructs.Price","components":[{"name":"price","type":"int64","internalType":"int64"},{"name":"conf","type":"uint64","internalType":"uint64"},{"name":"expo","type":"int32","internalType":"int32"},{"name":"publishTime","type":"uint256","internalType":"uint256"}]}],"stateMutability":"payable"}],"bytecode":{"object":"0x6080604052348015600f57600080fd5b50600080546001600160a01b031990811673dd24f84d36bf92c65f92307595335bdfab5bbd211790915560018054821673694aa1769357215de4fac081bf1f309adc32530617905560028054909116731b44f3514812d835eb1bdb0acb33d3fa3351ee43179055610997806100856000396000f3fe60806040526004361061004a5760003560e01c80630cea47aa1461004f57806319eeb486146100775780634a205699146100cd57806369abc658146100e25780638d9aca95146100f5575b600080fd5b34801561005b57600080fd5b50610064610108565b6040519081526020015b60405180910390f35b61008a610085366004610691565b6101fd565b60405161006e9190815160070b815260208083015167ffffffffffffffff169082015260408083015160030b908201526060918201519181019190915260800190565b3480156100d957600080fd5b50610064610397565b61008a6100f0366004610691565b6103ed565b61008a610103366004610691565b61053f565b600080600260009054906101000a90046001600160a01b03166001600160a01b031663feaf968c6040518163ffffffff1660e01b815260040160a060405180830381865afa15801561015e573d6000803e3d6000fd5b505050506040513d601f19601f820116820180604052508101906101829190610727565b505050915050600081136101e85760405162461bcd60e51b815260206004820152602360248201527f436861696e6c696e6b207072696365206973206e65676174697665206f72207a60448201526265726f60e81b606482015260840160405180910390fd5b6101f7816402540be40061078f565b91505090565b6040805160808101825260008082526020820181905291810182905260608101919091526000805460405163d47eed4560e01b81526001600160a01b039091169063d47eed459061025490879087906004016107e8565b602060405180830381865afa158015610271573d6000803e3d6000fd5b505050506040513d601f19601f82011682018060405250810190610295919061088b565b600054604051631df3cbc560e31b81529192506001600160a01b03169063ef9e5e289083906102ca90889088906004016107e8565b6000604051808303818588803b1580156102e357600080fd5b505af11580156102f7573d6000803e3d6000fd5b50506000546040516331d98b3f60e01b81527fe62df6c8b4a85fe1a67db44dc12de5db330f7ac66b72dc658afedf0f4a415b436004820181905294506001600160a01b0390911692506331d98b3f91506024015b608060405180830381865afa158015610368573d6000803e3d6000fd5b505050506040513d601f19601f8201168201806040525081019061038c91906108ce565b925050505b92915050565b600080600160009054906101000a90046001600160a01b03166001600160a01b031663feaf968c6040518163ffffffff1660e01b815260040160a060405180830381865afa15801561015e573d6000803e3d6000fd5b6040805160808101825260008082526020820181905291810182905260608101919091526000805460405163d47eed4560e01b81526001600160a01b039091169063d47eed459061044490879087906004016107e8565b602060405180830381865afa158015610461573d6000803e3d6000fd5b505050506040513d601f19601f82011682018060405250810190610485919061088b565b600054604051631df3cbc560e31b81529192506001600160a01b03169063ef9e5e289083906104ba90889088906004016107e8565b6000604051808303818588803b1580156104d357600080fd5b505af11580156104e7573d6000803e3d6000fd5b50506000546040516331d98b3f60e01b81527fff61491a931112ddf1bd8147cd1b641375f79f5825126d665480874634fd0ace6004820181905294506001600160a01b0390911692506331d98b3f915060240161034b565b6040805160808101825260008082526020820181905291810182905260608101919091526000805460405163d47eed4560e01b81526001600160a01b039091169063d47eed459061059690879087906004016107e8565b602060405180830381865afa1580156105b3573d6000803e3d6000fd5b505050506040513d601f19601f820116820180604052508101906105d7919061088b565b600054604051631df3cbc560e31b81529192506001600160a01b03169063ef9e5e2890839061060c90889088906004016107e8565b6000604051808303818588803b15801561062557600080fd5b505af1158015610639573d6000803e3d6000fd5b50506000546040516331d98b3f60e01b81527f2f95862b045670cd22bee3114c39763a4a08beeb663b145d283c31d7d1101c4f6004820181905294506001600160a01b0390911692506331d98b3f915060240161034b565b600080602083850312156106a457600080fd5b823567ffffffffffffffff8111156106bb57600080fd5b8301601f810185136106cc57600080fd5b803567ffffffffffffffff8111156106e357600080fd5b8560208260051b84010111156106f857600080fd5b6020919091019590945092505050565b805169ffffffffffffffffffff8116811461072257600080fd5b919050565b600080600080600060a0868803121561073f57600080fd5b61074886610708565b6020870151604088015160608901519297509095509350915061076d60808701610708565b90509295509295909350565b634e487b7160e01b600052601160045260246000fd5b80820260008212600160ff1b841416156107ab576107ab610779565b818105831482151761039157610391610779565b81835281816020850137506000828201602090810191909152601f909101601f19169091010190565b6020808252810182905260006040600584901b830181019083018583601e1936839003015b8782101561087e57868503603f19018452823581811261082c57600080fd5b890160208101903567ffffffffffffffff81111561084957600080fd5b80360382131561085857600080fd5b6108638782846107bf565b9650505060208301925060208401935060018201915061080d565b5092979650505050505050565b60006020828403121561089d57600080fd5b5051919050565b805167ffffffffffffffff8116811461072257600080fd5b8051600381900b811461072257600080fd5b600060808284031280156108e157600080fd5b600090506040516080810181811067ffffffffffffffff8211171561091457634e487b7160e01b83526041600452602483fd5b6040528351600781900b8114610928578283fd5b8152610936602085016108a4565b6020820152610947604085016108bc565b60408201526060938401519381019390935250909291505056fea264697066735822122058aa88b3680b4bd0365d5c9b5dcb94c7ea93da0760573d6867752d2f9758dafc64736f6c634300081a0033","linkReferences":{}},"methodIdentifiers":{"getLatestBNBPrice(bytes[])":"8d9aca95","getLatestBTCPrice(bytes[])":"19eeb486","getLatestChainlinkBTCPrice()":"0cea47aa","getLatestChainlinkETHPrice()":"4a205699","getLatestETHPrice(bytes[])":"69abc658"},"id":4}